{
  "contractName": "BusSafe",
  "abi": [
    {
      "constant": true,
      "inputs": [
        {
          "internalType": "uint256",
          "name": "",
          "type": "uint256"
        }
      ],
      "name": "check_list",
      "outputs": [
        {
          "internalType": "address",
          "name": "checker",
          "type": "address"
        },
        {
          "internalType": "string",
          "name": "carNo",
          "type": "string"
        },
        {
          "internalType": "string",
          "name": "checkResult",
          "type": "string"
        },
        {
          "internalType": "string",
          "name": "checkEtc",
          "type": "string"
        },
        {
          "internalType": "uint64",
          "name": "checkTime",
          "type": "uint64"
        }
      ],
      "payable": false,
      "stateMutability": "view",
      "type": "function"
    },
    {
      "constant": false,
      "inputs": [
        {
          "internalType": "string",
          "name": "_carNo",
          "type": "string"
        },
        {
          "internalType": "string",
          "name": "_checkResult",
          "type": "string"
        },
        {
          "internalType": "string",
          "name": "_checkEtc",
          "type": "string"
        },
        {
          "internalType": "uint64",
          "name": "_checkTime",
          "type": "uint64"
        }
      ],
      "name": "AddCheckList",
      "outputs": [],
      "payable": false,
      "stateMutability": "nonpayable",
      "type": "function"
    },
    {
      "constant": true,
      "inputs": [],
      "name": "GetTotalCount",
      "outputs": [
        {
          "internalType": "uint32",
          "name": "",
          "type": "uint32"
        }
      ],
      "payable": false,
      "stateMutability": "view",
      "type": "function"
    },
    {
      "constant": true,
      "inputs": [
        {
          "internalType": "uint64",
          "name": "_index",
          "type": "uint64"
        }
      ],
      "name": "GetCheck",
      "outputs": [
        {
          "internalType": "address",
          "name": "",
          "type": "address"
        },
        {
          "internalType": "string",
          "name": "",
          "type": "string"
        },
        {
          "internalType": "string",
          "name": "",
          "type": "string"
        },
        {
          "internalType": "string",
          "name": "",
          "type": "string"
        },
        {
          "internalType": "uint64",
          "name": "",
          "type": "uint64"
        }
      ],
      "payable": false,
      "stateMutability": "view",
      "type": "function"
    },
    {
      "constant": true,
      "inputs": [],
      "name": "GetAllCheckList",
      "outputs": [
        {
          "components": [
            {
              "internalType": "address",
              "name": "checker",
              "type": "address"
            },
            {
              "internalType": "string",
              "name": "carNo",
              "type": "string"
            },
            {
              "internalType": "string",
              "name": "checkResult",
              "type": "string"
            },
            {
              "internalType": "string",
              "name": "checkEtc",
              "type": "string"
            },
            {
              "internalType": "uint64",
              "name": "checkTime",
              "type": "uint64"
            }
          ],
          "internalType": "struct BusSafe.checkList[]",
          "name": "",
          "type": "tuple[]"
        }
      ],
      "payable": false,
      "stateMutability": "view",
      "type": "function"
    }
  ],
  "bytecode": "0x608060405234801561001057600080fd5b506111d7806100206000396000f3fe608060405234801561001057600080fd5b50600436106100575760003560e01c806328e7e00f1461005c57806346fa8d1e146100905780637b02663e146100ae578063ba1501ee146100cc578063dc627b7914610100575b600080fd5b61007660048036036100719190810190610cb0565b61011c565b604051610087959493929190610edc565b60405180910390f35b61009861040a565b6040516100a59190610fce565b60405180910390f35b6100b6610423565b6040516100c39190610fac565b60405180910390f35b6100e660048036036100e19190810190610c87565b6106f0565b6040516100f7959493929190610f44565b60405180910390f35b61011a60048036036101159190810190610bdc565b61092f565b005b60006060806060600060018667ffffffffffffffff168154811061013c57fe5b906000526020600020906005020160000160009054906101000a900473ffffffffffffffffffffffffffffffffffffffff1660018767ffffffffffffffff168154811061018557fe5b906000526020600020906005020160010160018867ffffffffffffffff16815481106101ad57fe5b906000526020600020906005020160020160018967ffffffffffffffff16815481106101d557fe5b906000526020600020906005020160030160018a67ffffffffffffffff16815481106101fd57fe5b906000526020600020906005020160040160009054906101000a900467ffffffffffffffff16838054600181600116156101000203166002900480601f0160208091040260200160405190810160405280929190818152602001828054600181600116156101000203166002900480156102b85780601f1061028d576101008083540402835291602001916102b8565b820191906000526020600020905b81548152906001019060200180831161029b57829003601f168201915b50505050509350828054600181600116156101000203166002900480601f0160208091040260200160405190810160405280929190818152602001828054600181600116156101000203166002900480156103545780601f1061032957610100808354040283529160200191610354565b820191906000526020600020905b81548152906001019060200180831161033757829003601f168201915b50505050509250818054600181600116156101000203166002900480601f0160208091040260200160405190810160405280929190818152602001828054600181600116156101000203166002900480156103f05780601f106103c5576101008083540402835291602001916103f0565b820191906000526020600020905b8154815290600101906020018083116103d357829003601f168201915b505050505091509450945094509450945091939590929450565b60008060009054906101000a900463ffffffff16905090565b60606001805480602002602001604051908101604052809291908181526020016000905b828210156106e757838290600052602060002090600502016040518060a00160405290816000820160009054906101000a900473ffffffffffffffffffffffffffffffffffffffff1673ffffffffffffffffffffffffffffffffffffffff1673ffffffffffffffffffffffffffffffffffffffff168152602001600182018054600181600116156101000203166002900480601f0160208091040260200160405190810160405280929190818152602001828054600181600116156101000203166002900480156105595780601f1061052e57610100808354040283529160200191610559565b820191906000526020600020905b81548152906001019060200180831161053c57829003601f168201915b50505050508152602001600282018054600181600116156101000203166002900480601f0160208091040260200160405190810160405280929190818152602001828054600181600116156101000203166002900480156105fb5780601f106105d0576101008083540402835291602001916105fb565b820191906000526020600020905b8154815290600101906020018083116105de57829003601f168201915b50505050508152602001600382018054600181600116156101000203166002900480601f01602080910402602001604051908101604052809291908181526020018280546001816001161561010002031660029004801561069d5780601f106106725761010080835404028352916020019161069d565b820191906000526020600020905b81548152906001019060200180831161068057829003601f168201915b505050505081526020016004820160009054906101000a900467ffffffffffffffff1667ffffffffffffffff1667ffffffffffffffff168152505081526020019060010190610447565b50505050905090565b600181815481106106fd57fe5b90600052602060002090600502016000915090508060000160009054906101000a900473ffffffffffffffffffffffffffffffffffffffff1690806001018054600181600116156101000203166002900480601f0160208091040260200160405190810160405280929190818152602001828054600181600116156101000203166002900480156107cf5780601f106107a4576101008083540402835291602001916107cf565b820191906000526020600020905b8154815290600101906020018083116107b257829003601f168201915b505050505090806002018054600181600116156101000203166002900480601f01602080910402602001604051908101604052809291908181526020018280546001816001161561010002031660029004801561086d5780601f106108425761010080835404028352916020019161086d565b820191906000526020600020905b81548152906001019060200180831161085057829003601f168201915b505050505090806003018054600181600116156101000203166002900480601f01602080910402602001604051908101604052809291908181526020018280546001816001161561010002031660029004801561090b5780601f106108e05761010080835404028352916020019161090b565b820191906000526020600020905b8154815290600101906020018083116108ee57829003601f168201915b5050505050908060040160009054906101000a900467ffffffffffffffff16905085565b600033905060016040518060a001604052808373ffffffffffffffffffffffffffffffffffffffff1681526020018781526020018681526020018581526020018467ffffffffffffffff168152509080600181540180825580915050906001820390600052602060002090600502016000909192909190915060008201518160000160006101000a81548173ffffffffffffffffffffffffffffffffffffffff021916908373ffffffffffffffffffffffffffffffffffffffff1602179055506020820151816001019080519060200190610a0b929190610ab9565b506040820151816002019080519060200190610a28929190610ab9565b506060820151816003019080519060200190610a45929190610ab9565b5060808201518160040160006101000a81548167ffffffffffffffff021916908367ffffffffffffffff16021790555050505060008081819054906101000a900463ffffffff168092919060010191906101000a81548163ffffffff021916908363ffffffff160217905550505050505050565b828054600181600116156101000203166002900490600052602060002090601f016020900481019282601f10610afa57805160ff1916838001178555610b28565b82800160010185558215610b28579182015b82811115610b27578251825591602001919060010190610b0c565b5b509050610b359190610b39565b5090565b610b5b91905b80821115610b57576000816000905550600101610b3f565b5090565b90565b600082601f830112610b6f57600080fd5b8135610b82610b7d82611016565b610fe9565b91508082526020830160208301858383011115610b9e57600080fd5b610ba9838284611113565b50505092915050565b600081359050610bc181611166565b92915050565b600081359050610bd68161117d565b92915050565b60008060008060808587031215610bf257600080fd5b600085013567ffffffffffffffff811115610c0c57600080fd5b610c1887828801610b5e565b945050602085013567ffffffffffffffff811115610c3557600080fd5b610c4187828801610b5e565b935050604085013567ffffffffffffffff811115610c5e57600080fd5b610c6a87828801610b5e565b9250506060610c7b87828801610bc7565b91505092959194509250565b600060208284031215610c9957600080fd5b6000610ca784828501610bb2565b91505092915050565b600060208284031215610cc257600080fd5b6000610cd084828501610bc7565b91505092915050565b6000610ce58383610e2b565b905092915050565b610cf6816110b3565b82525050565b610d05816110b3565b82525050565b6000610d1682611052565b610d208185611080565b935083602082028501610d3285611042565b8060005b85811015610d6e5784840389528151610d4f8582610cd9565b9450610d5a83611073565b925060208a01995050600181019050610d36565b50829750879550505050505092915050565b6000610d8b82611068565b610d9581856110a2565b9350610da5818560208601611122565b610dae81611155565b840191505092915050565b6000610dc48261105d565b610dce8185611091565b9350610dde818560208601611122565b610de781611155565b840191505092915050565b6000610dfd8261105d565b610e0781856110a2565b9350610e17818560208601611122565b610e2081611155565b840191505092915050565b600060a083016000830151610e436000860182610ced565b5060208301518482036020860152610e5b8282610db9565b91505060408301518482036040860152610e758282610db9565b91505060608301518482036060860152610e8f8282610db9565b9150506080830151610ea46080860182610ebe565b508091505092915050565b610eb8816110ef565b82525050565b610ec7816110ff565b82525050565b610ed6816110ff565b82525050565b600060a082019050610ef16000830188610cfc565b8181036020830152610f038187610d80565b90508181036040830152610f178186610d80565b90508181036060830152610f2b8185610d80565b9050610f3a6080830184610ecd565b9695505050505050565b600060a082019050610f596000830188610cfc565b8181036020830152610f6b8187610df2565b90508181036040830152610f7f8186610df2565b90508181036060830152610f938185610df2565b9050610fa26080830184610ecd565b9695505050505050565b60006020820190508181036000830152610fc68184610d0b565b905092915050565b6000602082019050610fe36000830184610eaf565b92915050565b6000604051905081810181811067ffffffffffffffff8211171561100c57600080fd5b8060405250919050565b600067ffffffffffffffff82111561102d57600080fd5b601f19601f8301169050602081019050919050565b6000819050602082019050919050565b600081519050919050565b600081519050919050565b600081519050919050565b6000602082019050919050565b600082825260208201905092915050565b600082825260208201905092915050565b600082825260208201905092915050565b60006110be826110c5565b9050919050565b600073ffffffffffffffffffffffffffffffffffffffff82169050919050565b6000819050919050565b600063ffffffff82169050919050565b600067ffffffffffffffff82169050919050565b82818337600083830152505050565b60005b83811015611140578082015181840152602081019050611125565b8381111561114f576000848401525b50505050565b6000601f19601f8301169050919050565b61116f816110e5565b811461117a57600080fd5b50565b611186816110ff565b811461119157600080fd5b5056fea365627a7a72315820651fda9adb7b81a6593b434d14c848b927ab1282135b937862d98a4754987eba6c6578706572696d656e74616cf564736f6c63430005100040",
  "source": "// SPDX-License-Identifier: MIT\npragma solidity >=0.4.22 <0.9.0;\npragma experimental ABIEncoderV2;\n\ncontract BusSafe {\n    // Bus 안전점검 점검표 등록하는 Contract\n\n    struct checkList {\n        address checker;\n        string carNo;\n        string checkResult;\n        string checkEtc;\n        uint64 checkTime;\n    }\n\n    uint32 checkCount; // 전체 cheeckList의 개수\n    checkList[] public check_list; // 저장할 target 변수\n\n    // 1. checkList Register function\n    function AddCheckList(\n        string memory _carNo,\n        string memory _checkResult,\n        string memory _checkEtc,\n        uint64 _checkTime\n    ) public {\n        address _checker = msg.sender;\n        check_list.push(\n            checkList(_checker, _carNo, _checkResult, _checkEtc, _checkTime)\n        );\n        checkCount++;\n    }\n\n    // 3. total count of checklist\n    function GetTotalCount() public view returns (uint32) {\n        return checkCount;\n    }\n\n    // 2. Retrieve checkList function\n    function GetCheck(uint64 _index)\n        public\n        view\n        returns (\n            address,\n            string memory,\n            string memory,\n            string memory,\n            uint64\n        )\n    {\n        return (\n            check_list[_index].checker,\n            check_list[_index].carNo,\n            check_list[_index].checkResult,\n            check_list[_index].checkEtc,\n            check_list[_index].checkTime\n        );\n    }\n\n    // 3. Retrieve all CheckList function\n    function GetAllCheckList() public view returns (checkList[] memory) {\n        return check_list;\n    }\n}\n",
  "sourcePath": "C:/Users/user/betweak/lectures/inje/express-board-api/contracts/BusSafe.sol",
  "compiler": {
    "name": "solc",
    "version": "0.5.16+commit.9c3226ce.Emscripten.clang"
  },
  "schemaVersion": "3.3.3",
  "updatedAt": "2021-01-04T13:31:34.560Z",
  "devdoc": {
    "methods": {}
  },
  "userdoc": {
    "methods": {}
  }
}