{
  "contractName": "NewBusSafe",
  "abi": [
    {
      "constant": false,
      "inputs": [
        {
          "internalType": "string",
          "name": "_car_no",
          "type": "string"
        },
        {
          "internalType": "string",
          "name": "_check_result",
          "type": "string"
        },
        {
          "internalType": "string",
          "name": "_check_etc",
          "type": "string"
        },
        {
          "internalType": "uint64",
          "name": "_check_time",
          "type": "uint64"
        }
      ],
      "name": "AddCheckList",
      "outputs": [],
      "payable": false,
      "stateMutability": "nonpayable",
      "type": "function"
    },
    {
      "constant": true,
      "inputs": [
        {
          "internalType": "string",
          "name": "_car_no",
          "type": "string"
        }
      ],
      "name": "GetAllCheckList",
      "outputs": [
        {
          "components": [
            {
              "internalType": "address",
              "name": "checker",
              "type": "address"
            },
            {
              "internalType": "string",
              "name": "carNo",
              "type": "string"
            },
            {
              "internalType": "string",
              "name": "checkResult",
              "type": "string"
            },
            {
              "internalType": "string",
              "name": "checkEtc",
              "type": "string"
            },
            {
              "internalType": "uint64",
              "name": "checkTime",
              "type": "uint64"
            }
          ],
          "internalType": "struct NewBusSafe.checkList[]",
          "name": "",
          "type": "tuple[]"
        }
      ],
      "payable": false,
      "stateMutability": "view",
      "type": "function"
    }
  ],
  "bytecode": "0x608060405234801561001057600080fd5b50610a63806100206000396000f3fe608060405234801561001057600080fd5b50600436106100365760003560e01c80630ce48d0a1461003b578063dc627b791461006b575b600080fd5b610055600480360361005091908101906105f2565b610087565b604051610062919061088a565b60405180910390f35b61008560048036036100809190810190610633565b610375565b005b60606000826040516100999190610873565b9081526020016040518091039020600001805480602002602001604051908101604052809291908181526020016000905b8282101561036a57838290600052602060002090600502016040518060a00160405290816000820160009054906101000a900473ffffffffffffffffffffffffffffffffffffffff1673ffffffffffffffffffffffffffffffffffffffff1673ffffffffffffffffffffffffffffffffffffffff168152602001600182018054600181600116156101000203166002900480601f0160208091040260200160405190810160405280929190818152602001828054600181600116156101000203166002900480156101dc5780601f106101b1576101008083540402835291602001916101dc565b820191906000526020600020905b8154815290600101906020018083116101bf57829003601f168201915b50505050508152602001600282018054600181600116156101000203166002900480601f01602080910402602001604051908101604052809291908181526020018280546001816001161561010002031660029004801561027e5780601f106102535761010080835404028352916020019161027e565b820191906000526020600020905b81548152906001019060200180831161026157829003601f168201915b50505050508152602001600382018054600181600116156101000203166002900480601f0160208091040260200160405190810160405280929190818152602001828054600181600116156101000203166002900480156103205780601f106102f557610100808354040283529160200191610320565b820191906000526020600020905b81548152906001019060200180831161030357829003601f168201915b505050505081526020016004820160009054906101000a900467ffffffffffffffff1667ffffffffffffffff1667ffffffffffffffff1681525050815260200190600101906100ca565b505050509050919050565b600033905060008560405161038a9190610873565b90815260200160405180910390206000016040518060a001604052808373ffffffffffffffffffffffffffffffffffffffff1681526020018781526020018681526020018581526020018467ffffffffffffffff168152509080600181540180825580915050906001820390600052602060002090600502016000909192909190915060008201518160000160006101000a81548173ffffffffffffffffffffffffffffffffffffffff021916908373ffffffffffffffffffffffffffffffffffffffff16021790555060208201518160010190805190602001906104709291906104e4565b50604082015181600201908051906020019061048d9291906104e4565b5060608201518160030190805190602001906104aa9291906104e4565b5060808201518160040160006101000a81548167ffffffffffffffff021916908367ffffffffffffffff1602179055505050505050505050565b828054600181600116156101000203166002900490600052602060002090601f016020900481019282601f1061052557805160ff1916838001178555610553565b82800160010185558215610553579182015b82811115610552578251825591602001919060010190610537565b5b5090506105609190610564565b5090565b61058691905b8082111561058257600081600090555060010161056a565b5090565b90565b600082601f83011261059a57600080fd5b81356105ad6105a8826108d9565b6108ac565b915080825260208301602083018583830111156105c957600080fd5b6105d48382846109b6565b50505092915050565b6000813590506105ec81610a09565b92915050565b60006020828403121561060457600080fd5b600082013567ffffffffffffffff81111561061e57600080fd5b61062a84828501610589565b91505092915050565b6000806000806080858703121561064957600080fd5b600085013567ffffffffffffffff81111561066357600080fd5b61066f87828801610589565b945050602085013567ffffffffffffffff81111561068c57600080fd5b61069887828801610589565b935050604085013567ffffffffffffffff8111156106b557600080fd5b6106c187828801610589565b92505060606106d2878288016105dd565b91505092959194509250565b60006106ea83836107e0565b905092915050565b6106fb81610970565b82525050565b600061070c82610915565b6107168185610943565b93508360208202850161072885610905565b8060005b85811015610764578484038952815161074585826106de565b945061075083610936565b925060208a0199505060018101905061072c565b50829750879550505050505092915050565b60006107818261092b565b61078b8185610965565b935061079b8185602086016109c5565b80840191505092915050565b60006107b282610920565b6107bc8185610954565b93506107cc8185602086016109c5565b6107d5816109f8565b840191505092915050565b600060a0830160008301516107f860008601826106f2565b506020830151848203602086015261081082826107a7565b9150506040830151848203604086015261082a82826107a7565b9150506060830151848203606086015261084482826107a7565b91505060808301516108596080860182610864565b508091505092915050565b61086d816109a2565b82525050565b600061087f8284610776565b915081905092915050565b600060208201905081810360008301526108a48184610701565b905092915050565b6000604051905081810181811067ffffffffffffffff821117156108cf57600080fd5b8060405250919050565b600067ffffffffffffffff8211156108f057600080fd5b601f19601f8301169050602081019050919050565b6000819050602082019050919050565b600081519050919050565b600081519050919050565b600081519050919050565b6000602082019050919050565b600082825260208201905092915050565b600082825260208201905092915050565b600081905092915050565b600061097b82610982565b9050919050565b600073ffffffffffffffffffffffffffffffffffffffff82169050919050565b600067ffffffffffffffff82169050919050565b82818337600083830152505050565b60005b838110156109e35780820151818401526020810190506109c8565b838111156109f2576000848401525b50505050565b6000601f19601f8301169050919050565b610a12816109a2565b8114610a1d57600080fd5b5056fea365627a7a72315820a7e1bad7c6a20f98b7accdf3f73f61f5bdf2ebb15a38e3a6e505eb01147bfd916c6578706572696d656e74616cf564736f6c63430005100040",
  "source": "// SPDX-License-Identifier: MIT\npragma solidity >=0.4.22 <0.9.0;\npragma experimental ABIEncoderV2;\n\ncontract NewBusSafe {\n    struct checkList {\n        address checker;\n        string carNo;\n        string checkResult;\n        string checkEtc;\n        uint64 checkTime;\n    }\n\n    struct Car {\n        checkList[] check_list;\n    }\n\n    mapping(string => Car) cars;\n\n    function AddCheckList(\n        string memory _car_no,\n        string memory _check_result,\n        string memory _check_etc,\n        uint64 _check_time\n    ) public {\n        address checker = msg.sender;\n        cars[_car_no].check_list.push(\n            checkList(checker, _car_no, _check_result, _check_etc, _check_time)\n        );\n    }\n\n    // 3. Retrieve all CheckList function\n    function GetAllCheckList(string memory _car_no)\n        public\n        view\n        returns (checkList[] memory)\n    {\n        return cars[_car_no].check_list;\n    }\n}\n",
  "sourcePath": "C:/Users/user/betweak/lectures/inje/express-board-api/contracts/NewBusSafe.sol",
  "compiler": {
    "name": "solc",
    "version": "0.5.16+commit.9c3226ce.Emscripten.clang"
  },
  "schemaVersion": "3.3.3",
  "updatedAt": "2021-01-04T13:31:43.910Z",
  "networkType": "ethereum",
  "devdoc": {
    "methods": {}
  },
  "userdoc": {
    "methods": {}
  }
}